{
  "address": "0x4826533B4897376654Bb4d4AD88B7faFD0C98528",
  "abi": [
    {
      "inputs": [
        {
          "internalType": "uint256",
          "name": "initialSupply",
          "type": "uint256"
        }
      ],
      "stateMutability": "nonpayable",
      "type": "constructor"
    },
    {
      "anonymous": false,
      "inputs": [
        {
          "indexed": true,
          "internalType": "address",
          "name": "owner",
          "type": "address"
        },
        {
          "indexed": true,
          "internalType": "address",
          "name": "approved",
          "type": "address"
        },
        {
          "indexed": true,
          "internalType": "uint256",
          "name": "tokenId",
          "type": "uint256"
        }
      ],
      "name": "Approval",
      "type": "event"
    },
    {
      "anonymous": false,
      "inputs": [
        {
          "indexed": true,
          "internalType": "address",
          "name": "owner",
          "type": "address"
        },
        {
          "indexed": true,
          "internalType": "address",
          "name": "operator",
          "type": "address"
        },
        {
          "indexed": false,
          "internalType": "bool",
          "name": "approved",
          "type": "bool"
        }
      ],
      "name": "ApprovalForAll",
      "type": "event"
    },
    {
      "anonymous": false,
      "inputs": [
        {
          "indexed": false,
          "internalType": "bytes32",
          "name": "newMerkleRoot",
          "type": "bytes32"
        }
      ],
      "name": "MerkleRootUpdated",
      "type": "event"
    },
    {
      "anonymous": false,
      "inputs": [
        {
          "indexed": true,
          "internalType": "address",
          "name": "previousOwner",
          "type": "address"
        },
        {
          "indexed": true,
          "internalType": "address",
          "name": "newOwner",
          "type": "address"
        }
      ],
      "name": "OwnershipTransferred",
      "type": "event"
    },
    {
      "anonymous": false,
      "inputs": [
        {
          "indexed": true,
          "internalType": "address",
          "name": "from",
          "type": "address"
        },
        {
          "indexed": true,
          "internalType": "address",
          "name": "to",
          "type": "address"
        },
        {
          "indexed": true,
          "internalType": "uint256",
          "name": "tokenId",
          "type": "uint256"
        }
      ],
      "name": "Transfer",
      "type": "event"
    },
    {
      "anonymous": false,
      "inputs": [
        {
          "indexed": false,
          "internalType": "uint256",
          "name": "tokenID",
          "type": "uint256"
        },
        {
          "indexed": false,
          "internalType": "string",
          "name": "url",
          "type": "string"
        }
      ],
      "name": "UpdatedURL",
      "type": "event"
    },
    {
      "inputs": [
        {
          "internalType": "address",
          "name": "to",
          "type": "address"
        },
        {
          "internalType": "uint256",
          "name": "tokenId",
          "type": "uint256"
        }
      ],
      "name": "approve",
      "outputs": [],
      "stateMutability": "nonpayable",
      "type": "function"
    },
    {
      "inputs": [
        {
          "internalType": "address",
          "name": "owner",
          "type": "address"
        }
      ],
      "name": "balanceOf",
      "outputs": [
        {
          "internalType": "uint256",
          "name": "",
          "type": "uint256"
        }
      ],
      "stateMutability": "view",
      "type": "function"
    },
    {
      "inputs": [
        {
          "internalType": "uint256",
          "name": "tokenId",
          "type": "uint256"
        }
      ],
      "name": "getApproved",
      "outputs": [
        {
          "internalType": "address",
          "name": "",
          "type": "address"
        }
      ],
      "stateMutability": "view",
      "type": "function"
    },
    {
      "inputs": [],
      "name": "getMerkleRoot",
      "outputs": [
        {
          "internalType": "bytes32",
          "name": "",
          "type": "bytes32"
        }
      ],
      "stateMutability": "view",
      "type": "function"
    },
    {
      "inputs": [
        {
          "internalType": "address",
          "name": "owner",
          "type": "address"
        },
        {
          "internalType": "address",
          "name": "operator",
          "type": "address"
        }
      ],
      "name": "isApprovedForAll",
      "outputs": [
        {
          "internalType": "bool",
          "name": "",
          "type": "bool"
        }
      ],
      "stateMutability": "view",
      "type": "function"
    },
    {
      "inputs": [],
      "name": "name",
      "outputs": [
        {
          "internalType": "string",
          "name": "",
          "type": "string"
        }
      ],
      "stateMutability": "view",
      "type": "function"
    },
    {
      "inputs": [],
      "name": "owner",
      "outputs": [
        {
          "internalType": "address",
          "name": "",
          "type": "address"
        }
      ],
      "stateMutability": "view",
      "type": "function"
    },
    {
      "inputs": [
        {
          "internalType": "uint256",
          "name": "tokenId",
          "type": "uint256"
        }
      ],
      "name": "ownerOf",
      "outputs": [
        {
          "internalType": "address",
          "name": "",
          "type": "address"
        }
      ],
      "stateMutability": "view",
      "type": "function"
    },
    {
      "inputs": [],
      "name": "renounceOwnership",
      "outputs": [],
      "stateMutability": "nonpayable",
      "type": "function"
    },
    {
      "inputs": [
        {
          "internalType": "uint256",
          "name": "tokenID",
          "type": "uint256"
        },
        {
          "internalType": "string",
          "name": "newURL",
          "type": "string"
        },
        {
          "internalType": "bytes32[]",
          "name": "proof",
          "type": "bytes32[]"
        }
      ],
      "name": "reveal",
      "outputs": [],
      "stateMutability": "nonpayable",
      "type": "function"
    },
    {
      "inputs": [
        {
          "internalType": "address",
          "name": "from",
          "type": "address"
        },
        {
          "internalType": "address",
          "name": "to",
          "type": "address"
        },
        {
          "internalType": "uint256",
          "name": "tokenId",
          "type": "uint256"
        }
      ],
      "name": "safeTransferFrom",
      "outputs": [],
      "stateMutability": "nonpayable",
      "type": "function"
    },
    {
      "inputs": [
        {
          "internalType": "address",
          "name": "from",
          "type": "address"
        },
        {
          "internalType": "address",
          "name": "to",
          "type": "address"
        },
        {
          "internalType": "uint256",
          "name": "tokenId",
          "type": "uint256"
        },
        {
          "internalType": "bytes",
          "name": "_data",
          "type": "bytes"
        }
      ],
      "name": "safeTransferFrom",
      "outputs": [],
      "stateMutability": "nonpayable",
      "type": "function"
    },
    {
      "inputs": [
        {
          "internalType": "address",
          "name": "operator",
          "type": "address"
        },
        {
          "internalType": "bool",
          "name": "approved",
          "type": "bool"
        }
      ],
      "name": "setApprovalForAll",
      "outputs": [],
      "stateMutability": "nonpayable",
      "type": "function"
    },
    {
      "inputs": [
        {
          "internalType": "bytes32",
          "name": "root",
          "type": "bytes32"
        }
      ],
      "name": "setMerkleRoot",
      "outputs": [],
      "stateMutability": "nonpayable",
      "type": "function"
    },
    {
      "inputs": [
        {
          "internalType": "bytes4",
          "name": "interfaceId",
          "type": "bytes4"
        }
      ],
      "name": "supportsInterface",
      "outputs": [
        {
          "internalType": "bool",
          "name": "",
          "type": "bool"
        }
      ],
      "stateMutability": "view",
      "type": "function"
    },
    {
      "inputs": [],
      "name": "symbol",
      "outputs": [
        {
          "internalType": "string",
          "name": "",
          "type": "string"
        }
      ],
      "stateMutability": "view",
      "type": "function"
    },
    {
      "inputs": [
        {
          "internalType": "uint256",
          "name": "tokenId",
          "type": "uint256"
        }
      ],
      "name": "tokenURI",
      "outputs": [
        {
          "internalType": "string",
          "name": "",
          "type": "string"
        }
      ],
      "stateMutability": "view",
      "type": "function"
    },
    {
      "inputs": [
        {
          "internalType": "address",
          "name": "from",
          "type": "address"
        },
        {
          "internalType": "address",
          "name": "to",
          "type": "address"
        },
        {
          "internalType": "uint256",
          "name": "tokenId",
          "type": "uint256"
        }
      ],
      "name": "transferFrom",
      "outputs": [],
      "stateMutability": "nonpayable",
      "type": "function"
    },
    {
      "inputs": [
        {
          "internalType": "address",
          "name": "newOwner",
          "type": "address"
        }
      ],
      "name": "transferOwnership",
      "outputs": [],
      "stateMutability": "nonpayable",
      "type": "function"
    }
  ],
  "transactionHash": "0xa71bfe8ee4dea133b495d332767da25010a74ae8d84821b558c348913dcdb1d4",
  "args": [
    3
  ],
  "numDeployments": 1,
  "solcInputHash": "c9b1abafd8e3292564e6113c5f87f7d3",
  "bytecode": "0x60806040523480156200001157600080fd5b5060405162003b6238038062003b6283398181016040528101906200003791906200053b565b6040518060400160405280600681526020017f52616e646f6d00000000000000000000000000000000000000000000000000008152506040518060400160405280600381526020017f524e4400000000000000000000000000000000000000000000000000000000008152508160009080519060200190620000bb92919062000474565b508060019080519060200190620000d492919062000474565b505050620000f7620000eb6200013660201b60201c565b6200013e60201b60201c565b6000600190505b8181116200012e576200011833826200020460201b60201c565b80806200012590620006a7565b915050620000fe565b5050620007bf565b600033905090565b6000600760009054906101000a900473ffffffffffffffffffffffffffffffffffffffff16905081600760006101000a81548173ffffffffffffffffffffffffffffffffffffffff021916908373ffffffffffffffffffffffffffffffffffffffff1602179055508173ffffffffffffffffffffffffffffffffffffffff168173ffffffffffffffffffffffffffffffffffffffff167f8be0079c531659141344cd1fd0a4f28419497f9722a3daafe3b4186f6b6457e060405160405180910390a35050565b600073ffffffffffffffffffffffffffffffffffffffff168273ffffffffffffffffffffffffffffffffffffffff16141562000277576040517f08c379a00000000000000000000000000000000000000000000000000000000081526004016200026e90620005d7565b60405180910390fd5b6200028881620003fe60201b60201c565b15620002cb576040517f08c379a0000000000000000000000000000000000000000000000000000000008152600401620002c290620005b5565b60405180910390fd5b620002df600083836200046a60201b60201c565b6001600360008473ffffffffffffffffffffffffffffffffffffffff1673ffffffffffffffffffffffffffffffffffffffff16815260200190815260200160002060008282546200033191906200060a565b92505081905550816002600083815260200190815260200160002060006101000a81548173ffffffffffffffffffffffffffffffffffffffff021916908373ffffffffffffffffffffffffffffffffffffffff160217905550808273ffffffffffffffffffffffffffffffffffffffff16600073ffffffffffffffffffffffffffffffffffffffff167fddf252ad1be2c89b69c2b068fc378daa952ba7f163c4a11628f55a4df523b3ef60405160405180910390a4620003fa600083836200046f60201b60201c565b5050565b60008073ffffffffffffffffffffffffffffffffffffffff166002600084815260200190815260200160002060009054906101000a900473ffffffffffffffffffffffffffffffffffffffff1673ffffffffffffffffffffffffffffffffffffffff1614159050919050565b505050565b505050565b828054620004829062000671565b90600052602060002090601f016020900481019282620004a65760008555620004f2565b82601f10620004c157805160ff1916838001178555620004f2565b82800160010185558215620004f2579182015b82811115620004f1578251825591602001919060010190620004d4565b5b50905062000501919062000505565b5090565b5b808211156200052057600081600090555060010162000506565b5090565b6000815190506200053581620007a5565b92915050565b6000602082840312156200054e57600080fd5b60006200055e8482850162000524565b91505092915050565b600062000576601c83620005f9565b9150620005838262000753565b602082019050919050565b60006200059d602083620005f9565b9150620005aa826200077c565b602082019050919050565b60006020820190508181036000830152620005d08162000567565b9050919050565b60006020820190508181036000830152620005f2816200058e565b9050919050565b600082825260208201905092915050565b6000620006178262000667565b9150620006248362000667565b9250827fffffffffffffffffffffffffffffffffffffffffffffffffffffffffffffffff038211156200065c576200065b620006f5565b5b828201905092915050565b6000819050919050565b600060028204905060018216806200068a57607f821691505b60208210811415620006a157620006a062000724565b5b50919050565b6000620006b48262000667565b91507fffffffffffffffffffffffffffffffffffffffffffffffffffffffffffffffff821415620006ea57620006e9620006f5565b5b600182019050919050565b7f4e487b7100000000000000000000000000000000000000000000000000000000600052601160045260246000fd5b7f4e487b7100000000000000000000000000000000000000000000000000000000600052602260045260246000fd5b7f4552433732313a20746f6b656e20616c7265616479206d696e74656400000000600082015250565b7f4552433732313a206d696e7420746f20746865207a65726f2061646472657373600082015250565b620007b08162000667565b8114620007bc57600080fd5b50565b61339380620007cf6000396000f3fe608060405234801561001057600080fd5b50600436106101215760003560e01c806370a08231116100ad578063a22cb46511610071578063a22cb465146102f4578063b88d4fde14610310578063c87b56dd1461032c578063e985e9c51461035c578063f2fde38b1461038c57610121565b806370a0823114610262578063715018a6146102925780637cb647591461029c5780638da5cb5b146102b857806395d89b41146102d657610121565b806323b872dd116100f457806323b872dd146101c057806342842e0e146101dc57806349590657146101f85780636352211e146102165780636ec4e1e71461024657610121565b806301ffc9a71461012657806306fdde0314610156578063081812fc14610174578063095ea7b3146101a4575b600080fd5b610140600480360381019061013b919061217a565b6103a8565b60405161014d91906126fe565b60405180910390f35b61015e61048a565b60405161016b9190612734565b60405180910390f35b61018e600480360381019061018991906121cc565b61051c565b60405161019b9190612697565b60405180910390f35b6101be60048036038101906101b99190612115565b6105a1565b005b6101da60048036038101906101d5919061200f565b6106b9565b005b6101f660048036038101906101f1919061200f565b610719565b005b610200610739565b60405161020d9190612719565b60405180910390f35b610230600480360381019061022b91906121cc565b610743565b60405161023d9190612697565b60405180910390f35b610260600480360381019061025b91906121f5565b6107f5565b005b61027c60048036038101906102779190611faa565b610a72565b60405161028991906129b6565b60405180910390f35b61029a610b2a565b005b6102b660048036038101906102b19190612151565b610bb2565b005b6102c0610c6f565b6040516102cd9190612697565b60405180910390f35b6102de610c99565b6040516102eb9190612734565b60405180910390f35b61030e600480360381019061030991906120d9565b610d2b565b005b61032a6004803603810190610325919061205e565b610d41565b005b610346600480360381019061034191906121cc565b610da3565b6040516103539190612734565b60405180910390f35b61037660048036038101906103719190611fd3565b610ef5565b60405161038391906126fe565b60405180910390f35b6103a660048036038101906103a19190611faa565b610f89565b005b60007f80ac58cd000000000000000000000000000000000000000000000000000000007bffffffffffffffffffffffffffffffffffffffffffffffffffffffff1916827bffffffffffffffffffffffffffffffffffffffffffffffffffffffff1916148061047357507f5b5e139f000000000000000000000000000000000000000000000000000000007bffffffffffffffffffffffffffffffffffffffffffffffffffffffff1916827bffffffffffffffffffffffffffffffffffffffffffffffffffffffff1916145b80610483575061048282611081565b5b9050919050565b60606000805461049990612c17565b80601f01602080910402602001604051908101604052809291908181526020018280546104c590612c17565b80156105125780601f106104e757610100808354040283529160200191610512565b820191906000526020600020905b8154815290600101906020018083116104f557829003601f168201915b5050505050905090565b6000610527826110eb565b610566576040517f08c379a000000000000000000000000000000000000000000000000000000000815260040161055d906128d6565b60405180910390fd5b6004600083815260200190815260200160002060009054906101000a900473ffffffffffffffffffffffffffffffffffffffff169050919050565b60006105ac82610743565b90508073ffffffffffffffffffffffffffffffffffffffff168373ffffffffffffffffffffffffffffffffffffffff16141561061d576040517f08c379a000000000000000000000000000000000000000000000000000000000815260040161061490612956565b60405180910390fd5b8073ffffffffffffffffffffffffffffffffffffffff1661063c611157565b73ffffffffffffffffffffffffffffffffffffffff16148061066b575061066a81610665611157565b610ef5565b5b6106aa576040517f08c379a00000000000000000000000000000000000000000000000000000000081526004016106a190612816565b60405180910390fd5b6106b4838361115f565b505050565b6106ca6106c4611157565b82611218565b610709576040517f08c379a000000000000000000000000000000000000000000000000000000000815260040161070090612976565b60405180910390fd5b6107148383836112f6565b505050565b61073483838360405180602001604052806000815250610d41565b505050565b6000600854905090565b6000806002600084815260200190815260200160002060009054906101000a900473ffffffffffffffffffffffffffffffffffffffff169050600073ffffffffffffffffffffffffffffffffffffffff168173ffffffffffffffffffffffffffffffffffffffff1614156107ec576040517f08c379a00000000000000000000000000000000000000000000000000000000081526004016107e390612856565b60405180910390fd5b80915050919050565b846107ff81610743565b73ffffffffffffffffffffffffffffffffffffffff163373ffffffffffffffffffffffffffffffffffffffff161461086c576040517f08c379a000000000000000000000000000000000000000000000000000000000815260040161086390612896565b60405180910390fd5b856009600082815260200190815260200160002060009054906101000a900460ff16156108ce576040517f08c379a00000000000000000000000000000000000000000000000000000000081526004016108c590612936565b60405180910390fd5b600061091e8888888080601f016020809104026020016040519081016040528093929190818152602001838380828437600081840152601f19601f8201169050808301925050505050505061155d565b90506000610970868680806020026020016040519081016040528093929190818152602001838360200280828437600081840152601f19601f8201169050808301925050505050505060085484611592565b9050806109b2576040517f08c379a00000000000000000000000000000000000000000000000000000000081526004016109a990612996565b60405180910390fd5b610a008989898080601f016020809104026020016040519081016040528093929190818152602001838380828437600081840152601f19601f820116905080830192505050505050506115a9565b6001600960008b815260200190815260200160002060006101000a81548160ff0219169083151502179055507f2b76f81be3162289f6f564301b518609813269c15760c47dcd94279db0a8eccd898989604051610a5f939291906129d1565b60405180910390a1505050505050505050565b60008073ffffffffffffffffffffffffffffffffffffffff168273ffffffffffffffffffffffffffffffffffffffff161415610ae3576040517f08c379a0000000000000000000000000000000000000000000000000000000008152600401610ada90612836565b60405180910390fd5b600360008373ffffffffffffffffffffffffffffffffffffffff1673ffffffffffffffffffffffffffffffffffffffff168152602001908152602001600020549050919050565b610b32611157565b73ffffffffffffffffffffffffffffffffffffffff16610b50610c6f565b73ffffffffffffffffffffffffffffffffffffffff1614610ba6576040517f08c379a0000000000000000000000000000000000000000000000000000000008152600401610b9d906128f6565b60405180910390fd5b610bb0600061161d565b565b610bba611157565b73ffffffffffffffffffffffffffffffffffffffff16610bd8610c6f565b73ffffffffffffffffffffffffffffffffffffffff1614610c2e576040517f08c379a0000000000000000000000000000000000000000000000000000000008152600401610c25906128f6565b60405180910390fd5b806008819055507f90004c04698bc3322499a575ed3752dd4abf33e0a7294c06a787a0fe01bea94181604051610c649190612719565b60405180910390a150565b6000600760009054906101000a900473ffffffffffffffffffffffffffffffffffffffff16905090565b606060018054610ca890612c17565b80601f0160208091040260200160405190810160405280929190818152602001828054610cd490612c17565b8015610d215780601f10610cf657610100808354040283529160200191610d21565b820191906000526020600020905b815481529060010190602001808311610d0457829003601f168201915b5050505050905090565b610d3d610d36611157565b83836116e3565b5050565b610d52610d4c611157565b83611218565b610d91576040517f08c379a0000000000000000000000000000000000000000000000000000000008152600401610d8890612976565b60405180910390fd5b610d9d84848484611850565b50505050565b6060610dae826110eb565b610ded576040517f08c379a0000000000000000000000000000000000000000000000000000000008152600401610de4906128b6565b60405180910390fd5b6000600660008481526020019081526020016000208054610e0d90612c17565b80601f0160208091040260200160405190810160405280929190818152602001828054610e3990612c17565b8015610e865780601f10610e5b57610100808354040283529160200191610e86565b820191906000526020600020905b815481529060010190602001808311610e6957829003601f168201915b505050505090506000610e976118ac565b9050600081511415610ead578192505050610ef0565b600082511115610ee2578082604051602001610eca92919061263a565b60405160208183030381529060405292505050610ef0565b610eeb846118c3565b925050505b919050565b6000600560008473ffffffffffffffffffffffffffffffffffffffff1673ffffffffffffffffffffffffffffffffffffffff16815260200190815260200160002060008373ffffffffffffffffffffffffffffffffffffffff1673ffffffffffffffffffffffffffffffffffffffff16815260200190815260200160002060009054906101000a900460ff16905092915050565b610f91611157565b73ffffffffffffffffffffffffffffffffffffffff16610faf610c6f565b73ffffffffffffffffffffffffffffffffffffffff1614611005576040517f08c379a0000000000000000000000000000000000000000000000000000000008152600401610ffc906128f6565b60405180910390fd5b600073ffffffffffffffffffffffffffffffffffffffff168173ffffffffffffffffffffffffffffffffffffffff161415611075576040517f08c379a000000000000000000000000000000000000000000000000000000000815260040161106c90612776565b60405180910390fd5b61107e8161161d565b50565b60007f01ffc9a7000000000000000000000000000000000000000000000000000000007bffffffffffffffffffffffffffffffffffffffffffffffffffffffff1916827bffffffffffffffffffffffffffffffffffffffffffffffffffffffff1916149050919050565b60008073ffffffffffffffffffffffffffffffffffffffff166002600084815260200190815260200160002060009054906101000a900473ffffffffffffffffffffffffffffffffffffffff1673ffffffffffffffffffffffffffffffffffffffff1614159050919050565b600033905090565b816004600083815260200190815260200160002060006101000a81548173ffffffffffffffffffffffffffffffffffffffff021916908373ffffffffffffffffffffffffffffffffffffffff160217905550808273ffffffffffffffffffffffffffffffffffffffff166111d283610743565b73ffffffffffffffffffffffffffffffffffffffff167f8c5be1e5ebec7d5bd14f71427d1e84f3dd0314c0f7b2291e5b200ac8c7c3b92560405160405180910390a45050565b6000611223826110eb565b611262576040517f08c379a0000000000000000000000000000000000000000000000000000000008152600401611259906127f6565b60405180910390fd5b600061126d83610743565b90508073ffffffffffffffffffffffffffffffffffffffff168473ffffffffffffffffffffffffffffffffffffffff1614806112af57506112ae8185610ef5565b5b806112ed57508373ffffffffffffffffffffffffffffffffffffffff166112d58461051c565b73ffffffffffffffffffffffffffffffffffffffff16145b91505092915050565b8273ffffffffffffffffffffffffffffffffffffffff1661131682610743565b73ffffffffffffffffffffffffffffffffffffffff161461136c576040517f08c379a000000000000000000000000000000000000000000000000000000000815260040161136390612796565b60405180910390fd5b600073ffffffffffffffffffffffffffffffffffffffff168273ffffffffffffffffffffffffffffffffffffffff1614156113dc576040517f08c379a00000000000000000000000000000000000000000000000000000000081526004016113d3906127b6565b60405180910390fd5b6113e783838361196a565b6113f260008261115f565b6001600360008573ffffffffffffffffffffffffffffffffffffffff1673ffffffffffffffffffffffffffffffffffffffff16815260200190815260200160002060008282546114429190612b23565b925050819055506001600360008473ffffffffffffffffffffffffffffffffffffffff1673ffffffffffffffffffffffffffffffffffffffff16815260200190815260200160002060008282546114999190612a9c565b92505081905550816002600083815260200190815260200160002060006101000a81548173ffffffffffffffffffffffffffffffffffffffff021916908373ffffffffffffffffffffffffffffffffffffffff160217905550808273ffffffffffffffffffffffffffffffffffffffff168473ffffffffffffffffffffffffffffffffffffffff167fddf252ad1be2c89b69c2b068fc378daa952ba7f163c4a11628f55a4df523b3ef60405160405180910390a461155883838361196f565b505050565b60004683836040516020016115749392919061265e565b60405160208183030381529060405280519060200120905092915050565b60008261159f8584611974565b1490509392505050565b6115b2826110eb565b6115f1576040517f08c379a00000000000000000000000000000000000000000000000000000000081526004016115e890612876565b60405180910390fd5b80600660008481526020019081526020016000209080519060200190611618929190611d8d565b505050565b6000600760009054906101000a900473ffffffffffffffffffffffffffffffffffffffff16905081600760006101000a81548173ffffffffffffffffffffffffffffffffffffffff021916908373ffffffffffffffffffffffffffffffffffffffff1602179055508173ffffffffffffffffffffffffffffffffffffffff168173ffffffffffffffffffffffffffffffffffffffff167f8be0079c531659141344cd1fd0a4f28419497f9722a3daafe3b4186f6b6457e060405160405180910390a35050565b8173ffffffffffffffffffffffffffffffffffffffff168373ffffffffffffffffffffffffffffffffffffffff161415611752576040517f08c379a0000000000000000000000000000000000000000000000000000000008152600401611749906127d6565b60405180910390fd5b80600560008573ffffffffffffffffffffffffffffffffffffffff1673ffffffffffffffffffffffffffffffffffffffff16815260200190815260200160002060008473ffffffffffffffffffffffffffffffffffffffff1673ffffffffffffffffffffffffffffffffffffffff16815260200190815260200160002060006101000a81548160ff0219169083151502179055508173ffffffffffffffffffffffffffffffffffffffff168373ffffffffffffffffffffffffffffffffffffffff167f17307eab39ab6107e8899845ad3d59bd9653f200f220920489ca2b5937696c318360405161184391906126fe565b60405180910390a3505050565b61185b8484846112f6565b61186784848484611a0f565b6118a6576040517f08c379a000000000000000000000000000000000000000000000000000000000815260040161189d90612756565b60405180910390fd5b50505050565b606060405180602001604052806000815250905090565b60606118ce826110eb565b61190d576040517f08c379a000000000000000000000000000000000000000000000000000000000815260040161190490612916565b60405180910390fd5b60006119176118ac565b905060008151116119375760405180602001604052806000815250611962565b8061194184611ba6565b60405160200161195292919061263a565b6040516020818303038152906040525b915050919050565b505050565b505050565b60008082905060005b8451811015611a045760008582815181106119c1577f4e487b7100000000000000000000000000000000000000000000000000000000600052603260045260246000fd5b602002602001015190508083116119e3576119dc8382611d53565b92506119f0565b6119ed8184611d53565b92505b5080806119fc90612c7a565b91505061197d565b508091505092915050565b6000611a308473ffffffffffffffffffffffffffffffffffffffff16611d6a565b15611b99578373ffffffffffffffffffffffffffffffffffffffff1663150b7a02611a59611157565b8786866040518563ffffffff1660e01b8152600401611a7b94939291906126b2565b602060405180830381600087803b158015611a9557600080fd5b505af1925050508015611ac657506040513d601f19601f82011682018060405250810190611ac391906121a3565b60015b611b49573d8060008114611af6576040519150601f19603f3d011682016040523d82523d6000602084013e611afb565b606091505b50600081511415611b41576040517f08c379a0000000000000000000000000000000000000000000000000000000008152600401611b3890612756565b60405180910390fd5b805181602001fd5b63150b7a0260e01b7bffffffffffffffffffffffffffffffffffffffffffffffffffffffff1916817bffffffffffffffffffffffffffffffffffffffffffffffffffffffff191614915050611b9e565b600190505b949350505050565b60606000821415611bee576040518060400160405280600181526020017f30000000000000000000000000000000000000000000000000000000000000008152509050611d4e565b600082905060005b60008214611c20578080611c0990612c7a565b915050600a82611c199190612af2565b9150611bf6565b60008167ffffffffffffffff811115611c62577f4e487b7100000000000000000000000000000000000000000000000000000000600052604160045260246000fd5b6040519080825280601f01601f191660200182016040528015611c945781602001600182028036833780820191505090505b5090505b60008514611d4757600182611cad9190612b23565b9150600a85611cbc9190612ccd565b6030611cc89190612a9c565b60f81b818381518110611d04577f4e487b7100000000000000000000000000000000000000000000000000000000600052603260045260246000fd5b60200101907effffffffffffffffffffffffffffffffffffffffffffffffffffffffffffff1916908160001a905350600a85611d409190612af2565b9450611c98565b8093505050505b919050565b600082600052816020526040600020905092915050565b6000808273ffffffffffffffffffffffffffffffffffffffff163b119050919050565b828054611d9990612c17565b90600052602060002090601f016020900481019282611dbb5760008555611e02565b82601f10611dd457805160ff1916838001178555611e02565b82800160010185558215611e02579182015b82811115611e01578251825591602001919060010190611de6565b5b509050611e0f9190611e13565b5090565b5b80821115611e2c576000816000905550600101611e14565b5090565b6000611e43611e3e84612a28565b612a03565b905082815260208101848484011115611e5b57600080fd5b611e66848285612bd5565b509392505050565b600081359050611e7d816132ea565b92915050565b60008083601f840112611e9557600080fd5b8235905067ffffffffffffffff811115611eae57600080fd5b602083019150836020820283011115611ec657600080fd5b9250929050565b600081359050611edc81613301565b92915050565b600081359050611ef181613318565b92915050565b600081359050611f068161332f565b92915050565b600081519050611f1b8161332f565b92915050565b600082601f830112611f3257600080fd5b8135611f42848260208601611e30565b91505092915050565b60008083601f840112611f5d57600080fd5b8235905067ffffffffffffffff811115611f7657600080fd5b602083019150836001820283011115611f8e57600080fd5b9250929050565b600081359050611fa481613346565b92915050565b600060208284031215611fbc57600080fd5b6000611fca84828501611e6e565b91505092915050565b60008060408385031215611fe657600080fd5b6000611ff485828601611e6e565b925050602061200585828601611e6e565b9150509250929050565b60008060006060848603121561202457600080fd5b600061203286828701611e6e565b935050602061204386828701611e6e565b925050604061205486828701611f95565b9150509250925092565b6000806000806080858703121561207457600080fd5b600061208287828801611e6e565b945050602061209387828801611e6e565b93505060406120a487828801611f95565b925050606085013567ffffffffffffffff8111156120c157600080fd5b6120cd87828801611f21565b91505092959194509250565b600080604083850312156120ec57600080fd5b60006120fa85828601611e6e565b925050602061210b85828601611ecd565b9150509250929050565b6000806040838503121561212857600080fd5b600061213685828601611e6e565b925050602061214785828601611f95565b9150509250929050565b60006020828403121561216357600080fd5b600061217184828501611ee2565b91505092915050565b60006020828403121561218c57600080fd5b600061219a84828501611ef7565b91505092915050565b6000602082840312156121b557600080fd5b60006121c384828501611f0c565b91505092915050565b6000602082840312156121de57600080fd5b60006121ec84828501611f95565b91505092915050565b60008060008060006060868803121561220d57600080fd5b600061221b88828901611f95565b955050602086013567ffffffffffffffff81111561223857600080fd5b61224488828901611f4b565b9450945050604086013567ffffffffffffffff81111561226357600080fd5b61226f88828901611e83565b92509250509295509295909350565b61228781612b57565b82525050565b61229681612b69565b82525050565b6122a581612b75565b82525050565b60006122b682612a59565b6122c08185612a6f565b93506122d0818560208601612be4565b6122d981612dba565b840191505092915050565b60006122f08385612a80565b93506122fd838584612bd5565b61230683612dba565b840190509392505050565b600061231c82612a64565b6123268185612a80565b9350612336818560208601612be4565b61233f81612dba565b840191505092915050565b600061235582612a64565b61235f8185612a91565b935061236f818560208601612be4565b80840191505092915050565b6000612388603283612a80565b915061239382612dcb565b604082019050919050565b60006123ab602683612a80565b91506123b682612e1a565b604082019050919050565b60006123ce602583612a80565b91506123d982612e69565b604082019050919050565b60006123f1602483612a80565b91506123fc82612eb8565b604082019050919050565b6000612414601983612a80565b915061241f82612f07565b602082019050919050565b6000612437602c83612a80565b915061244282612f30565b604082019050919050565b600061245a603883612a80565b915061246582612f7f565b604082019050919050565b600061247d602a83612a80565b915061248882612fce565b604082019050919050565b60006124a0602983612a80565b91506124ab8261301d565b604082019050919050565b60006124c3602e83612a80565b91506124ce8261306c565b604082019050919050565b60006124e6601c83612a80565b91506124f1826130bb565b602082019050919050565b6000612509603183612a80565b9150612514826130e4565b604082019050919050565b600061252c602c83612a80565b915061253782613133565b604082019050919050565b600061254f602083612a80565b915061255a82613182565b602082019050919050565b6000612572602f83612a80565b915061257d826131ab565b604082019050919050565b6000612595601883612a80565b91506125a0826131fa565b602082019050919050565b60006125b8602183612a80565b91506125c382613223565b604082019050919050565b60006125db603183612a80565b91506125e682613272565b604082019050919050565b60006125fe601983612a80565b9150612609826132c1565b602082019050919050565b61261d81612bcb565b82525050565b61263461262f82612bcb565b612cc3565b82525050565b6000612646828561234a565b9150612652828461234a565b91508190509392505050565b600061266a8286612623565b60208201915061267a8285612623565b60208201915061268a828461234a565b9150819050949350505050565b60006020820190506126ac600083018461227e565b92915050565b60006080820190506126c7600083018761227e565b6126d4602083018661227e565b6126e16040830185612614565b81810360608301526126f381846122ab565b905095945050505050565b6000602082019050612713600083018461228d565b92915050565b600060208201905061272e600083018461229c565b92915050565b6000602082019050818103600083015261274e8184612311565b905092915050565b6000602082019050818103600083015261276f8161237b565b9050919050565b6000602082019050818103600083015261278f8161239e565b9050919050565b600060208201905081810360008301526127af816123c1565b9050919050565b600060208201905081810360008301526127cf816123e4565b9050919050565b600060208201905081810360008301526127ef81612407565b9050919050565b6000602082019050818103600083015261280f8161242a565b9050919050565b6000602082019050818103600083015261282f8161244d565b9050919050565b6000602082019050818103600083015261284f81612470565b9050919050565b6000602082019050818103600083015261286f81612493565b9050919050565b6000602082019050818103600083015261288f816124b6565b9050919050565b600060208201905081810360008301526128af816124d9565b9050919050565b600060208201905081810360008301526128cf816124fc565b9050919050565b600060208201905081810360008301526128ef8161251f565b9050919050565b6000602082019050818103600083015261290f81612542565b9050919050565b6000602082019050818103600083015261292f81612565565b9050919050565b6000602082019050818103600083015261294f81612588565b9050919050565b6000602082019050818103600083015261296f816125ab565b9050919050565b6000602082019050818103600083015261298f816125ce565b9050919050565b600060208201905081810360008301526129af816125f1565b9050919050565b60006020820190506129cb6000830184612614565b92915050565b60006040820190506129e66000830186612614565b81810360208301526129f98184866122e4565b9050949350505050565b6000612a0d612a1e565b9050612a198282612c49565b919050565b6000604051905090565b600067ffffffffffffffff821115612a4357612a42612d8b565b5b612a4c82612dba565b9050602081019050919050565b600081519050919050565b600081519050919050565b600082825260208201905092915050565b600082825260208201905092915050565b600081905092915050565b6000612aa782612bcb565b9150612ab283612bcb565b9250827fffffffffffffffffffffffffffffffffffffffffffffffffffffffffffffffff03821115612ae757612ae6612cfe565b5b828201905092915050565b6000612afd82612bcb565b9150612b0883612bcb565b925082612b1857612b17612d2d565b5b828204905092915050565b6000612b2e82612bcb565b9150612b3983612bcb565b925082821015612b4c57612b4b612cfe565b5b828203905092915050565b6000612b6282612bab565b9050919050565b60008115159050919050565b6000819050919050565b60007fffffffff0000000000000000000000000000000000000000000000000000000082169050919050565b600073ffffffffffffffffffffffffffffffffffffffff82169050919050565b6000819050919050565b82818337600083830152505050565b60005b83811015612c02578082015181840152602081019050612be7565b83811115612c11576000848401525b50505050565b60006002820490506001821680612c2f57607f821691505b60208210811415612c4357612c42612d5c565b5b50919050565b612c5282612dba565b810181811067ffffffffffffffff82111715612c7157612c70612d8b565b5b80604052505050565b6000612c8582612bcb565b91507fffffffffffffffffffffffffffffffffffffffffffffffffffffffffffffffff821415612cb857612cb7612cfe565b5b600182019050919050565b6000819050919050565b6000612cd882612bcb565b9150612ce383612bcb565b925082612cf357612cf2612d2d565b5b828206905092915050565b7f4e487b7100000000000000000000000000000000000000000000000000000000600052601160045260246000fd5b7f4e487b7100000000000000000000000000000000000000000000000000000000600052601260045260246000fd5b7f4e487b7100000000000000000000000000000000000000000000000000000000600052602260045260246000fd5b7f4e487b7100000000000000000000000000000000000000000000000000000000600052604160045260246000fd5b6000601f19601f8301169050919050565b7f4552433732313a207472616e7366657220746f206e6f6e20455243373231526560008201527f63656976657220696d706c656d656e7465720000000000000000000000000000602082015250565b7f4f776e61626c653a206e6577206f776e657220697320746865207a65726f206160008201527f6464726573730000000000000000000000000000000000000000000000000000602082015250565b7f4552433732313a207472616e736665722066726f6d20696e636f72726563742060008201527f6f776e6572000000000000000000000000000000000000000000000000000000602082015250565b7f4552433732313a207472616e7366657220746f20746865207a65726f2061646460008201527f7265737300000000000000000000000000000000000000000000000000000000602082015250565b7f4552433732313a20617070726f766520746f2063616c6c657200000000000000600082015250565b7f4552433732313a206f70657261746f7220717565727920666f72206e6f6e657860008201527f697374656e7420746f6b656e0000000000000000000000000000000000000000602082015250565b7f4552433732313a20617070726f76652063616c6c6572206973206e6f74206f7760008201527f6e6572206e6f7220617070726f76656420666f7220616c6c0000000000000000602082015250565b7f4552433732313a2062616c616e636520717565727920666f7220746865207a6560008201527f726f206164647265737300000000000000000000000000000000000000000000602082015250565b7f4552433732313a206f776e657220717565727920666f72206e6f6e657869737460008201527f656e7420746f6b656e0000000000000000000000000000000000000000000000602082015250565b7f45524337323155524953746f726167653a2055524920736574206f66206e6f6e60008201527f6578697374656e7420746f6b656e000000000000000000000000000000000000602082015250565b7f596f7520617265206e6f742074686520746f6b656e206f776e65722100000000600082015250565b7f45524337323155524953746f726167653a2055524920717565727920666f722060008201527f6e6f6e6578697374656e7420746f6b656e000000000000000000000000000000602082015250565b7f4552433732313a20617070726f76656420717565727920666f72206e6f6e657860008201527f697374656e7420746f6b656e0000000000000000000000000000000000000000602082015250565b7f4f776e61626c653a2063616c6c6572206973206e6f7420746865206f776e6572600082015250565b7f4552433732314d657461646174613a2055524920717565727920666f72206e6f60008201527f6e6578697374656e7420746f6b656e0000000000000000000000000000000000602082015250565b7f4d65726b6c6520726f6f7420616c726561647920736574210000000000000000600082015250565b7f4552433732313a20617070726f76616c20746f2063757272656e74206f776e6560008201527f7200000000000000000000000000000000000000000000000000000000000000602082015250565b7f4552433732313a207472616e736665722063616c6c6572206973206e6f74206f60008201527f776e6572206e6f7220617070726f766564000000000000000000000000000000602082015250565b7f4d65726b6c652070726f6f66206973206e6f742076616c696400000000000000600082015250565b6132f381612b57565b81146132fe57600080fd5b50565b61330a81612b69565b811461331557600080fd5b50565b61332181612b75565b811461332c57600080fd5b50565b61333881612b7f565b811461334357600080fd5b50565b61334f81612bcb565b811461335a57600080fd5b5056fea2646970667358221220be85f57cfe4682940a8c9678f824a5672dc8215afcbc90328b9c3a1ce3ea9edc64736f6c63430008040033",
  "devdoc": {
    "kind": "dev",
    "methods": {
      "approve(address,uint256)": {
        "details": "See {IERC721-approve}."
      },
      "balanceOf(address)": {
        "details": "See {IERC721-balanceOf}."
      },
      "getApproved(uint256)": {
        "details": "See {IERC721-getApproved}."
      },
      "isApprovedForAll(address,address)": {
        "details": "See {IERC721-isApprovedForAll}."
      },
      "name()": {
        "details": "See {IERC721Metadata-name}."
      },
      "owner()": {
        "details": "Returns the address of the current owner."
      },
      "ownerOf(uint256)": {
        "details": "See {IERC721-ownerOf}."
      },
      "renounceOwnership()": {
        "details": "Leaves the contract without owner. It will not be possible to call `onlyOwner` functions anymore. Can only be called by the current owner. NOTE: Renouncing ownership will leave the contract without an owner, thereby removing any functionality that is only available to the owner."
      },
      "safeTransferFrom(address,address,uint256)": {
        "details": "See {IERC721-safeTransferFrom}."
      },
      "safeTransferFrom(address,address,uint256,bytes)": {
        "details": "See {IERC721-safeTransferFrom}."
      },
      "setApprovalForAll(address,bool)": {
        "details": "See {IERC721-setApprovalForAll}."
      },
      "supportsInterface(bytes4)": {
        "details": "See {IERC165-supportsInterface}."
      },
      "symbol()": {
        "details": "See {IERC721Metadata-symbol}."
      },
      "tokenURI(uint256)": {
        "details": "See {IERC721Metadata-tokenURI}."
      },
      "transferFrom(address,address,uint256)": {
        "details": "See {IERC721-transferFrom}."
      },
      "transferOwnership(address)": {
        "details": "Transfers ownership of the contract to a new account (`newOwner`). Can only be called by the current owner."
      }
    },
    "version": 1
  },
  "userdoc": {
    "kind": "user",
    "methods": {},
    "version": 1
  },
  "storageLayout": {
    "storage": [
      {
        "astId": 130,
        "contract": "contracts/MerkleERC721.sol:MerkleERC721",
        "label": "_name",
        "offset": 0,
        "slot": "0",
        "type": "t_string_storage"
      },
      {
        "astId": 132,
        "contract": "contracts/MerkleERC721.sol:MerkleERC721",
        "label": "_symbol",
        "offset": 0,
        "slot": "1",
        "type": "t_string_storage"
      },
      {
        "astId": 136,
        "contract": "contracts/MerkleERC721.sol:MerkleERC721",
        "label": "_owners",
        "offset": 0,
        "slot": "2",
        "type": "t_mapping(t_uint256,t_address)"
      },
      {
        "astId": 140,
        "contract": "contracts/MerkleERC721.sol:MerkleERC721",
        "label": "_balances",
        "offset": 0,
        "slot": "3",
        "type": "t_mapping(t_address,t_uint256)"
      },
      {
        "astId": 144,
        "contract": "contracts/MerkleERC721.sol:MerkleERC721",
        "label": "_tokenApprovals",
        "offset": 0,
        "slot": "4",
        "type": "t_mapping(t_uint256,t_address)"
      },
      {
        "astId": 150,
        "contract": "contracts/MerkleERC721.sol:MerkleERC721",
        "label": "_operatorApprovals",
        "offset": 0,
        "slot": "5",
        "type": "t_mapping(t_address,t_mapping(t_address,t_bool))"
      },
      {
        "astId": 1117,
        "contract": "contracts/MerkleERC721.sol:MerkleERC721",
        "label": "_tokenURIs",
        "offset": 0,
        "slot": "6",
        "type": "t_mapping(t_uint256,t_string_storage)"
      },
      {
        "astId": 7,
        "contract": "contracts/MerkleERC721.sol:MerkleERC721",
        "label": "_owner",
        "offset": 0,
        "slot": "7",
        "type": "t_address"
      },
      {
        "astId": 1922,
        "contract": "contracts/MerkleERC721.sol:MerkleERC721",
        "label": "_merkleRoot",
        "offset": 0,
        "slot": "8",
        "type": "t_bytes32"
      },
      {
        "astId": 1926,
        "contract": "contracts/MerkleERC721.sol:MerkleERC721",
        "label": "_tokenRevealed",
        "offset": 0,
        "slot": "9",
        "type": "t_mapping(t_uint256,t_bool)"
      }
    ],
    "types": {
      "t_address": {
        "encoding": "inplace",
        "label": "address",
        "numberOfBytes": "20"
      },
      "t_bool": {
        "encoding": "inplace",
        "label": "bool",
        "numberOfBytes": "1"
      },
      "t_bytes32": {
        "encoding": "inplace",
        "label": "bytes32",
        "numberOfBytes": "32"
      },
      "t_mapping(t_address,t_bool)": {
        "encoding": "mapping",
        "key": "t_address",
        "label": "mapping(address => bool)",
        "numberOfBytes": "32",
        "value": "t_bool"
      },
      "t_mapping(t_address,t_mapping(t_address,t_bool))": {
        "encoding": "mapping",
        "key": "t_address",
        "label": "mapping(address => mapping(address => bool))",
        "numberOfBytes": "32",
        "value": "t_mapping(t_address,t_bool)"
      },
      "t_mapping(t_address,t_uint256)": {
        "encoding": "mapping",
        "key": "t_address",
        "label": "mapping(address => uint256)",
        "numberOfBytes": "32",
        "value": "t_uint256"
      },
      "t_mapping(t_uint256,t_address)": {
        "encoding": "mapping",
        "key": "t_uint256",
        "label": "mapping(uint256 => address)",
        "numberOfBytes": "32",
        "value": "t_address"
      },
      "t_mapping(t_uint256,t_bool)": {
        "encoding": "mapping",
        "key": "t_uint256",
        "label": "mapping(uint256 => bool)",
        "numberOfBytes": "32",
        "value": "t_bool"
      },
      "t_mapping(t_uint256,t_string_storage)": {
        "encoding": "mapping",
        "key": "t_uint256",
        "label": "mapping(uint256 => string)",
        "numberOfBytes": "32",
        "value": "t_string_storage"
      },
      "t_string_storage": {
        "encoding": "bytes",
        "label": "string",
        "numberOfBytes": "32"
      },
      "t_uint256": {
        "encoding": "inplace",
        "label": "uint256",
        "numberOfBytes": "32"
      }
    }
  }
}