{
  "address": "0x5FbDB2315678afecb367f032d93F642f64180aa3",
  "abi": [
    {
      "inputs": [
        {
          "internalType": "uint64",
          "name": "maxSupply",
          "type": "uint64"
        }
      ],
      "stateMutability": "nonpayable",
      "type": "constructor"
    },
    {
      "anonymous": false,
      "inputs": [
        {
          "indexed": true,
          "internalType": "address",
          "name": "owner",
          "type": "address"
        },
        {
          "indexed": true,
          "internalType": "address",
          "name": "approved",
          "type": "address"
        },
        {
          "indexed": true,
          "internalType": "uint256",
          "name": "tokenId",
          "type": "uint256"
        }
      ],
      "name": "Approval",
      "type": "event"
    },
    {
      "anonymous": false,
      "inputs": [
        {
          "indexed": true,
          "internalType": "address",
          "name": "owner",
          "type": "address"
        },
        {
          "indexed": true,
          "internalType": "address",
          "name": "operator",
          "type": "address"
        },
        {
          "indexed": false,
          "internalType": "bool",
          "name": "approved",
          "type": "bool"
        }
      ],
      "name": "ApprovalForAll",
      "type": "event"
    },
    {
      "anonymous": false,
      "inputs": [
        {
          "indexed": false,
          "internalType": "bytes32",
          "name": "newMerkleRoot",
          "type": "bytes32"
        }
      ],
      "name": "MerkleRootUpdated",
      "type": "event"
    },
    {
      "anonymous": false,
      "inputs": [
        {
          "indexed": true,
          "internalType": "address",
          "name": "previousOwner",
          "type": "address"
        },
        {
          "indexed": true,
          "internalType": "address",
          "name": "newOwner",
          "type": "address"
        }
      ],
      "name": "OwnershipTransferred",
      "type": "event"
    },
    {
      "anonymous": false,
      "inputs": [],
      "name": "RevealEnabled",
      "type": "event"
    },
    {
      "anonymous": false,
      "inputs": [
        {
          "indexed": true,
          "internalType": "address",
          "name": "from",
          "type": "address"
        },
        {
          "indexed": true,
          "internalType": "address",
          "name": "to",
          "type": "address"
        },
        {
          "indexed": true,
          "internalType": "uint256",
          "name": "tokenId",
          "type": "uint256"
        }
      ],
      "name": "Transfer",
      "type": "event"
    },
    {
      "anonymous": false,
      "inputs": [
        {
          "indexed": false,
          "internalType": "uint256",
          "name": "tokenID",
          "type": "uint256"
        },
        {
          "indexed": false,
          "internalType": "string",
          "name": "url",
          "type": "string"
        }
      ],
      "name": "UpdatedURL",
      "type": "event"
    },
    {
      "inputs": [
        {
          "internalType": "address",
          "name": "to",
          "type": "address"
        },
        {
          "internalType": "uint256",
          "name": "tokenId",
          "type": "uint256"
        }
      ],
      "name": "approve",
      "outputs": [],
      "stateMutability": "nonpayable",
      "type": "function"
    },
    {
      "inputs": [
        {
          "internalType": "address",
          "name": "owner",
          "type": "address"
        }
      ],
      "name": "balanceOf",
      "outputs": [
        {
          "internalType": "uint256",
          "name": "",
          "type": "uint256"
        }
      ],
      "stateMutability": "view",
      "type": "function"
    },
    {
      "inputs": [],
      "name": "enableReveal",
      "outputs": [],
      "stateMutability": "nonpayable",
      "type": "function"
    },
    {
      "inputs": [
        {
          "internalType": "uint256",
          "name": "tokenId",
          "type": "uint256"
        }
      ],
      "name": "getApproved",
      "outputs": [
        {
          "internalType": "address",
          "name": "",
          "type": "address"
        }
      ],
      "stateMutability": "view",
      "type": "function"
    },
    {
      "inputs": [],
      "name": "getMerkleRoot",
      "outputs": [
        {
          "internalType": "bytes32",
          "name": "",
          "type": "bytes32"
        }
      ],
      "stateMutability": "view",
      "type": "function"
    },
    {
      "inputs": [
        {
          "internalType": "address",
          "name": "owner",
          "type": "address"
        },
        {
          "internalType": "address",
          "name": "operator",
          "type": "address"
        }
      ],
      "name": "isApprovedForAll",
      "outputs": [
        {
          "internalType": "bool",
          "name": "",
          "type": "bool"
        }
      ],
      "stateMutability": "view",
      "type": "function"
    },
    {
      "inputs": [
        {
          "internalType": "address",
          "name": "to",
          "type": "address"
        },
        {
          "internalType": "uint256",
          "name": "tokenID",
          "type": "uint256"
        }
      ],
      "name": "mintNFT",
      "outputs": [],
      "stateMutability": "nonpayable",
      "type": "function"
    },
    {
      "inputs": [],
      "name": "name",
      "outputs": [
        {
          "internalType": "string",
          "name": "",
          "type": "string"
        }
      ],
      "stateMutability": "view",
      "type": "function"
    },
    {
      "inputs": [],
      "name": "owner",
      "outputs": [
        {
          "internalType": "address",
          "name": "",
          "type": "address"
        }
      ],
      "stateMutability": "view",
      "type": "function"
    },
    {
      "inputs": [
        {
          "internalType": "uint256",
          "name": "tokenId",
          "type": "uint256"
        }
      ],
      "name": "ownerOf",
      "outputs": [
        {
          "internalType": "address",
          "name": "",
          "type": "address"
        }
      ],
      "stateMutability": "view",
      "type": "function"
    },
    {
      "inputs": [],
      "name": "renounceOwnership",
      "outputs": [],
      "stateMutability": "nonpayable",
      "type": "function"
    },
    {
      "inputs": [
        {
          "internalType": "uint256",
          "name": "tokenID",
          "type": "uint256"
        },
        {
          "internalType": "string",
          "name": "newURL",
          "type": "string"
        },
        {
          "internalType": "bytes32[]",
          "name": "proof",
          "type": "bytes32[]"
        }
      ],
      "name": "reveal",
      "outputs": [],
      "stateMutability": "nonpayable",
      "type": "function"
    },
    {
      "inputs": [],
      "name": "revealEnabled",
      "outputs": [
        {
          "internalType": "bool",
          "name": "",
          "type": "bool"
        }
      ],
      "stateMutability": "view",
      "type": "function"
    },
    {
      "inputs": [
        {
          "internalType": "address",
          "name": "from",
          "type": "address"
        },
        {
          "internalType": "address",
          "name": "to",
          "type": "address"
        },
        {
          "internalType": "uint256",
          "name": "tokenId",
          "type": "uint256"
        }
      ],
      "name": "safeTransferFrom",
      "outputs": [],
      "stateMutability": "nonpayable",
      "type": "function"
    },
    {
      "inputs": [
        {
          "internalType": "address",
          "name": "from",
          "type": "address"
        },
        {
          "internalType": "address",
          "name": "to",
          "type": "address"
        },
        {
          "internalType": "uint256",
          "name": "tokenId",
          "type": "uint256"
        },
        {
          "internalType": "bytes",
          "name": "_data",
          "type": "bytes"
        }
      ],
      "name": "safeTransferFrom",
      "outputs": [],
      "stateMutability": "nonpayable",
      "type": "function"
    },
    {
      "inputs": [
        {
          "internalType": "address",
          "name": "operator",
          "type": "address"
        },
        {
          "internalType": "bool",
          "name": "approved",
          "type": "bool"
        }
      ],
      "name": "setApprovalForAll",
      "outputs": [],
      "stateMutability": "nonpayable",
      "type": "function"
    },
    {
      "inputs": [
        {
          "internalType": "bytes32",
          "name": "root",
          "type": "bytes32"
        }
      ],
      "name": "setMerkleRoot",
      "outputs": [],
      "stateMutability": "nonpayable",
      "type": "function"
    },
    {
      "inputs": [
        {
          "internalType": "bytes4",
          "name": "interfaceId",
          "type": "bytes4"
        }
      ],
      "name": "supportsInterface",
      "outputs": [
        {
          "internalType": "bool",
          "name": "",
          "type": "bool"
        }
      ],
      "stateMutability": "view",
      "type": "function"
    },
    {
      "inputs": [],
      "name": "symbol",
      "outputs": [
        {
          "internalType": "string",
          "name": "",
          "type": "string"
        }
      ],
      "stateMutability": "view",
      "type": "function"
    },
    {
      "inputs": [
        {
          "internalType": "uint256",
          "name": "tokenId",
          "type": "uint256"
        }
      ],
      "name": "tokenURI",
      "outputs": [
        {
          "internalType": "string",
          "name": "",
          "type": "string"
        }
      ],
      "stateMutability": "view",
      "type": "function"
    },
    {
      "inputs": [
        {
          "internalType": "address",
          "name": "from",
          "type": "address"
        },
        {
          "internalType": "address",
          "name": "to",
          "type": "address"
        },
        {
          "internalType": "uint256",
          "name": "tokenId",
          "type": "uint256"
        }
      ],
      "name": "transferFrom",
      "outputs": [],
      "stateMutability": "nonpayable",
      "type": "function"
    },
    {
      "inputs": [
        {
          "internalType": "address",
          "name": "newOwner",
          "type": "address"
        }
      ],
      "name": "transferOwnership",
      "outputs": [],
      "stateMutability": "nonpayable",
      "type": "function"
    }
  ],
  "transactionHash": "0x580f604aeac5391b43254b979c7cdaaa16501438e9e0adfbd665494c3460b1ee",
  "args": [
    3
  ],
  "numDeployments": 1,
  "solcInputHash": "5d94a687228ef11ddd97944cf28570f7",
  "bytecode": "0x60806040523480156200001157600080fd5b5060405162003fe638038062003fe68339818101604052810190620000379190620002d7565b6040518060400160405280600681526020017f52616e646f6d00000000000000000000000000000000000000000000000000008152506040518060400160405280600381526020017f524e4400000000000000000000000000000000000000000000000000000000008152508160009080519060200190620000bb92919062000210565b508060019080519060200190620000d492919062000210565b505050620000f7620000eb6200014260201b60201c565b6200014a60201b60201c565b80600960016101000a81548167ffffffffffffffff021916908367ffffffffffffffff1602179055506000600960006101000a81548160ff0219169083151502179055505062000396565b600033905090565b6000600760009054906101000a900473ffffffffffffffffffffffffffffffffffffffff16905081600760006101000a81548173ffffffffffffffffffffffffffffffffffffffff021916908373ffffffffffffffffffffffffffffffffffffffff1602179055508173ffffffffffffffffffffffffffffffffffffffff168173ffffffffffffffffffffffffffffffffffffffff167f8be0079c531659141344cd1fd0a4f28419497f9722a3daafe3b4186f6b6457e060405160405180910390a35050565b8280546200021e9062000317565b90600052602060002090601f0160209004810192826200024257600085556200028e565b82601f106200025d57805160ff19168380011785556200028e565b828001600101855582156200028e579182015b828111156200028d57825182559160200191906001019062000270565b5b5090506200029d9190620002a1565b5090565b5b80821115620002bc576000816000905550600101620002a2565b5090565b600081519050620002d1816200037c565b92915050565b600060208284031215620002ea57600080fd5b6000620002fa84828501620002c0565b91505092915050565b600067ffffffffffffffff82169050919050565b600060028204905060018216806200033057607f821691505b602082108114156200034757620003466200034d565b5b50919050565b7f4e487b7100000000000000000000000000000000000000000000000000000000600052602260045260246000fd5b620003878162000303565b81146200039357600080fd5b50565b613c4080620003a66000396000f3fe608060405234801561001057600080fd5b50600436106101425760003560e01c806370a08231116100b85780639ad7a0f61161007c5780639ad7a0f61461033b578063a22cb46514610359578063b88d4fde14610375578063c87b56dd14610391578063e985e9c5146103c1578063f2fde38b146103f157610142565b806370a08231146102a9578063715018a6146102d95780637cb64759146102e35780638da5cb5b146102ff57806395d89b411461031d57610142565b806323b872dd1161010a57806323b872dd146101eb5780633c168eab1461020757806342842e0e14610223578063495906571461023f5780636352211e1461025d5780636ec4e1e71461028d57610142565b806301ffc9a71461014757806306fdde0314610177578063081812fc14610195578063095ea7b3146101c55780632219940a146101e1575b600080fd5b610161600480360381019061015c9190612708565b61040d565b60405161016e9190612d86565b60405180910390f35b61017f6104ef565b60405161018c9190612dbc565b60405180910390f35b6101af60048036038101906101aa919061275a565b610581565b6040516101bc9190612d1f565b60405180910390f35b6101df60048036038101906101da91906126a3565b610606565b005b6101e961071e565b005b6102056004803603810190610200919061259d565b61087b565b005b610221600480360381019061021c91906126a3565b6108db565b005b61023d6004803603810190610238919061259d565b610a15565b005b610247610a35565b6040516102549190612da1565b60405180910390f35b6102776004803603810190610272919061275a565b610a3f565b6040516102849190612d1f565b60405180910390f35b6102a760048036038101906102a29190612783565b610af1565b005b6102c360048036038101906102be9190612538565b610dbd565b6040516102d091906130fe565b60405180910390f35b6102e1610e75565b005b6102fd60048036038101906102f891906126df565b610efd565b005b61030761100a565b6040516103149190612d1f565b60405180910390f35b610325611034565b6040516103329190612dbc565b60405180910390f35b6103436110c6565b6040516103509190612d86565b60405180910390f35b610373600480360381019061036e9190612667565b6110dd565b005b61038f600480360381019061038a91906125ec565b6110f3565b005b6103ab60048036038101906103a6919061275a565b611155565b6040516103b89190612dbc565b60405180910390f35b6103db60048036038101906103d69190612561565b6112a7565b6040516103e89190612d86565b60405180910390f35b61040b60048036038101906104069190612538565b61133b565b005b60007f80ac58cd000000000000000000000000000000000000000000000000000000007bffffffffffffffffffffffffffffffffffffffffffffffffffffffff1916827bffffffffffffffffffffffffffffffffffffffffffffffffffffffff191614806104d857507f5b5e139f000000000000000000000000000000000000000000000000000000007bffffffffffffffffffffffffffffffffffffffffffffffffffffffff1916827bffffffffffffffffffffffffffffffffffffffffffffffffffffffff1916145b806104e857506104e782611433565b5b9050919050565b6060600080546104fe9061339d565b80601f016020809104026020016040519081016040528092919081815260200182805461052a9061339d565b80156105775780601f1061054c57610100808354040283529160200191610577565b820191906000526020600020905b81548152906001019060200180831161055a57829003601f168201915b5050505050905090565b600061058c8261149d565b6105cb576040517f08c379a00000000000000000000000000000000000000000000000000000000081526004016105c290612fbe565b60405180910390fd5b6004600083815260200190815260200160002060009054906101000a900473ffffffffffffffffffffffffffffffffffffffff169050919050565b600061061182610a3f565b90508073ffffffffffffffffffffffffffffffffffffffff168373ffffffffffffffffffffffffffffffffffffffff161415610682576040517f08c379a00000000000000000000000000000000000000000000000000000000081526004016106799061303e565b60405180910390fd5b8073ffffffffffffffffffffffffffffffffffffffff166106a1611509565b73ffffffffffffffffffffffffffffffffffffffff1614806106d057506106cf816106ca611509565b6112a7565b5b61070f576040517f08c379a000000000000000000000000000000000000000000000000000000000815260040161070690612ede565b60405180910390fd5b6107198383611511565b505050565b610726611509565b73ffffffffffffffffffffffffffffffffffffffff1661074461100a565b73ffffffffffffffffffffffffffffffffffffffff161461079a576040517f08c379a000000000000000000000000000000000000000000000000000000000815260040161079190612fde565b60405180910390fd5b600960009054906101000a900460ff16156107ea576040517f08c379a00000000000000000000000000000000000000000000000000000000081526004016107e1906130de565b60405180910390fd5b6000801b6008541415610832576040517f08c379a0000000000000000000000000000000000000000000000000000000008152600401610829906130be565b60405180910390fd5b6001600960006101000a81548160ff0219169083151502179055507f56db354995358f5ce67b11869241e6fc4c011ed4f9eb057298f3ee3f096ec2b960405160405180910390a1565b61088c610886611509565b826115ca565b6108cb576040517f08c379a00000000000000000000000000000000000000000000000000000000081526004016108c29061305e565b60405180910390fd5b6108d68383836116a8565b505050565b6108e3611509565b73ffffffffffffffffffffffffffffffffffffffff1661090161100a565b73ffffffffffffffffffffffffffffffffffffffff1614610957576040517f08c379a000000000000000000000000000000000000000000000000000000000815260040161094e90612fde565b60405180910390fd5b6000600960019054906101000a900467ffffffffffffffff1667ffffffffffffffff16116109ba576040517f08c379a00000000000000000000000000000000000000000000000000000000081526004016109b19061307e565b60405180910390fd5b6109c4828261190f565b6009600181819054906101000a900467ffffffffffffffff16809291906109ea90613373565b91906101000a81548167ffffffffffffffff021916908367ffffffffffffffff160217905550505050565b610a30838383604051806020016040528060008152506110f3565b505050565b6000600854905090565b6000806002600084815260200190815260200160002060009054906101000a900473ffffffffffffffffffffffffffffffffffffffff169050600073ffffffffffffffffffffffffffffffffffffffff168173ffffffffffffffffffffffffffffffffffffffff161415610ae8576040517f08c379a0000000000000000000000000000000000000000000000000000000008152600401610adf90612f1e565b60405180910390fd5b80915050919050565b84610afb81610a3f565b73ffffffffffffffffffffffffffffffffffffffff163373ffffffffffffffffffffffffffffffffffffffff1614610b68576040517f08c379a0000000000000000000000000000000000000000000000000000000008152600401610b5f90612f5e565b60405180910390fd5b85600a600082815260200190815260200160002060009054906101000a900460ff1615610bca576040517f08c379a0000000000000000000000000000000000000000000000000000000008152600401610bc19061301e565b60405180910390fd5b600960009054906101000a900460ff16610c19576040517f08c379a0000000000000000000000000000000000000000000000000000000008152600401610c1090612dde565b60405180910390fd5b6000610c698888888080601f016020809104026020016040519081016040528093929190818152602001838380828437600081840152601f19601f82011690508083019250505050505050611ae9565b90506000610cbb868680806020026020016040519081016040528093929190818152602001838360200280828437600081840152601f19601f8201169050808301925050505050505060085484611b20565b905080610cfd576040517f08c379a0000000000000000000000000000000000000000000000000000000008152600401610cf49061309e565b60405180910390fd5b610d4b8989898080601f016020809104026020016040519081016040528093929190818152602001838380828437600081840152601f19601f82011690508083019250505050505050611b37565b6001600a60008b815260200190815260200160002060006101000a81548160ff0219169083151502179055507f2b76f81be3162289f6f564301b518609813269c15760c47dcd94279db0a8eccd898989604051610daa93929190613119565b60405180910390a1505050505050505050565b60008073ffffffffffffffffffffffffffffffffffffffff168273ffffffffffffffffffffffffffffffffffffffff161415610e2e576040517f08c379a0000000000000000000000000000000000000000000000000000000008152600401610e2590612efe565b60405180910390fd5b600360008373ffffffffffffffffffffffffffffffffffffffff1673ffffffffffffffffffffffffffffffffffffffff168152602001908152602001600020549050919050565b610e7d611509565b73ffffffffffffffffffffffffffffffffffffffff16610e9b61100a565b73ffffffffffffffffffffffffffffffffffffffff1614610ef1576040517f08c379a0000000000000000000000000000000000000000000000000000000008152600401610ee890612fde565b60405180910390fd5b610efb6000611bab565b565b610f05611509565b73ffffffffffffffffffffffffffffffffffffffff16610f2361100a565b73ffffffffffffffffffffffffffffffffffffffff1614610f79576040517f08c379a0000000000000000000000000000000000000000000000000000000008152600401610f7090612fde565b60405180910390fd5b600960009054906101000a900460ff1615610fc9576040517f08c379a0000000000000000000000000000000000000000000000000000000008152600401610fc0906130de565b60405180910390fd5b806008819055507f90004c04698bc3322499a575ed3752dd4abf33e0a7294c06a787a0fe01bea94181604051610fff9190612da1565b60405180910390a150565b6000600760009054906101000a900473ffffffffffffffffffffffffffffffffffffffff16905090565b6060600180546110439061339d565b80601f016020809104026020016040519081016040528092919081815260200182805461106f9061339d565b80156110bc5780601f10611091576101008083540402835291602001916110bc565b820191906000526020600020905b81548152906001019060200180831161109f57829003601f168201915b5050505050905090565b6000600960009054906101000a900460ff16905090565b6110ef6110e8611509565b8383611c71565b5050565b6111046110fe611509565b836115ca565b611143576040517f08c379a000000000000000000000000000000000000000000000000000000000815260040161113a9061305e565b60405180910390fd5b61114f84848484611dde565b50505050565b60606111608261149d565b61119f576040517f08c379a000000000000000000000000000000000000000000000000000000000815260040161119690612f9e565b60405180910390fd5b60006006600084815260200190815260200160002080546111bf9061339d565b80601f01602080910402602001604051908101604052809291908181526020018280546111eb9061339d565b80156112385780601f1061120d57610100808354040283529160200191611238565b820191906000526020600020905b81548152906001019060200180831161121b57829003601f168201915b505050505090506000611249611e3a565b905060008151141561125f5781925050506112a2565b60008251111561129457808260405160200161127c929190612cfb565b604051602081830303815290604052925050506112a2565b61129d84611e51565b925050505b919050565b6000600560008473ffffffffffffffffffffffffffffffffffffffff1673ffffffffffffffffffffffffffffffffffffffff16815260200190815260200160002060008373ffffffffffffffffffffffffffffffffffffffff1673ffffffffffffffffffffffffffffffffffffffff16815260200190815260200160002060009054906101000a900460ff16905092915050565b611343611509565b73ffffffffffffffffffffffffffffffffffffffff1661136161100a565b73ffffffffffffffffffffffffffffffffffffffff16146113b7576040517f08c379a00000000000000000000000000000000000000000000000000000000081526004016113ae90612fde565b60405180910390fd5b600073ffffffffffffffffffffffffffffffffffffffff168173ffffffffffffffffffffffffffffffffffffffff161415611427576040517f08c379a000000000000000000000000000000000000000000000000000000000815260040161141e90612e1e565b60405180910390fd5b61143081611bab565b50565b60007f01ffc9a7000000000000000000000000000000000000000000000000000000007bffffffffffffffffffffffffffffffffffffffffffffffffffffffff1916827bffffffffffffffffffffffffffffffffffffffffffffffffffffffff1916149050919050565b60008073ffffffffffffffffffffffffffffffffffffffff166002600084815260200190815260200160002060009054906101000a900473ffffffffffffffffffffffffffffffffffffffff1673ffffffffffffffffffffffffffffffffffffffff1614159050919050565b600033905090565b816004600083815260200190815260200160002060006101000a81548173ffffffffffffffffffffffffffffffffffffffff021916908373ffffffffffffffffffffffffffffffffffffffff160217905550808273ffffffffffffffffffffffffffffffffffffffff1661158483610a3f565b73ffffffffffffffffffffffffffffffffffffffff167f8c5be1e5ebec7d5bd14f71427d1e84f3dd0314c0f7b2291e5b200ac8c7c3b92560405160405180910390a45050565b60006115d58261149d565b611614576040517f08c379a000000000000000000000000000000000000000000000000000000000815260040161160b90612ebe565b60405180910390fd5b600061161f83610a3f565b90508073ffffffffffffffffffffffffffffffffffffffff168473ffffffffffffffffffffffffffffffffffffffff161480611661575061166081856112a7565b5b8061169f57508373ffffffffffffffffffffffffffffffffffffffff1661168784610581565b73ffffffffffffffffffffffffffffffffffffffff16145b91505092915050565b8273ffffffffffffffffffffffffffffffffffffffff166116c882610a3f565b73ffffffffffffffffffffffffffffffffffffffff161461171e576040517f08c379a000000000000000000000000000000000000000000000000000000000815260040161171590612e3e565b60405180910390fd5b600073ffffffffffffffffffffffffffffffffffffffff168273ffffffffffffffffffffffffffffffffffffffff16141561178e576040517f08c379a000000000000000000000000000000000000000000000000000000000815260040161178590612e7e565b60405180910390fd5b611799838383611ef8565b6117a4600082611511565b6001600360008573ffffffffffffffffffffffffffffffffffffffff1673ffffffffffffffffffffffffffffffffffffffff16815260200190815260200160002060008282546117f4919061326b565b925050819055506001600360008473ffffffffffffffffffffffffffffffffffffffff1673ffffffffffffffffffffffffffffffffffffffff168152602001908152602001600020600082825461184b91906131e4565b92505081905550816002600083815260200190815260200160002060006101000a81548173ffffffffffffffffffffffffffffffffffffffff021916908373ffffffffffffffffffffffffffffffffffffffff160217905550808273ffffffffffffffffffffffffffffffffffffffff168473ffffffffffffffffffffffffffffffffffffffff167fddf252ad1be2c89b69c2b068fc378daa952ba7f163c4a11628f55a4df523b3ef60405160405180910390a461190a838383611efd565b505050565b600073ffffffffffffffffffffffffffffffffffffffff168273ffffffffffffffffffffffffffffffffffffffff16141561197f576040517f08c379a000000000000000000000000000000000000000000000000000000000815260040161197690612f7e565b60405180910390fd5b6119888161149d565b156119c8576040517f08c379a00000000000000000000000000000000000000000000000000000000081526004016119bf90612e5e565b60405180910390fd5b6119d460008383611ef8565b6001600360008473ffffffffffffffffffffffffffffffffffffffff1673ffffffffffffffffffffffffffffffffffffffff1681526020019081526020016000206000828254611a2491906131e4565b92505081905550816002600083815260200190815260200160002060006101000a81548173ffffffffffffffffffffffffffffffffffffffff021916908373ffffffffffffffffffffffffffffffffffffffff160217905550808273ffffffffffffffffffffffffffffffffffffffff16600073ffffffffffffffffffffffffffffffffffffffff167fddf252ad1be2c89b69c2b068fc378daa952ba7f163c4a11628f55a4df523b3ef60405160405180910390a4611ae560008383611efd565b5050565b600030468484604051602001611b029493929190612cb1565b60405160208183030381529060405280519060200120905092915050565b600082611b2d8584611f02565b1490509392505050565b611b408261149d565b611b7f576040517f08c379a0000000000000000000000000000000000000000000000000000000008152600401611b7690612f3e565b60405180910390fd5b80600660008481526020019081526020016000209080519060200190611ba692919061231b565b505050565b6000600760009054906101000a900473ffffffffffffffffffffffffffffffffffffffff16905081600760006101000a81548173ffffffffffffffffffffffffffffffffffffffff021916908373ffffffffffffffffffffffffffffffffffffffff1602179055508173ffffffffffffffffffffffffffffffffffffffff168173ffffffffffffffffffffffffffffffffffffffff167f8be0079c531659141344cd1fd0a4f28419497f9722a3daafe3b4186f6b6457e060405160405180910390a35050565b8173ffffffffffffffffffffffffffffffffffffffff168373ffffffffffffffffffffffffffffffffffffffff161415611ce0576040517f08c379a0000000000000000000000000000000000000000000000000000000008152600401611cd790612e9e565b60405180910390fd5b80600560008573ffffffffffffffffffffffffffffffffffffffff1673ffffffffffffffffffffffffffffffffffffffff16815260200190815260200160002060008473ffffffffffffffffffffffffffffffffffffffff1673ffffffffffffffffffffffffffffffffffffffff16815260200190815260200160002060006101000a81548160ff0219169083151502179055508173ffffffffffffffffffffffffffffffffffffffff168373ffffffffffffffffffffffffffffffffffffffff167f17307eab39ab6107e8899845ad3d59bd9653f200f220920489ca2b5937696c3183604051611dd19190612d86565b60405180910390a3505050565b611de98484846116a8565b611df584848484611f9d565b611e34576040517f08c379a0000000000000000000000000000000000000000000000000000000008152600401611e2b90612dfe565b60405180910390fd5b50505050565b606060405180602001604052806000815250905090565b6060611e5c8261149d565b611e9b576040517f08c379a0000000000000000000000000000000000000000000000000000000008152600401611e9290612ffe565b60405180910390fd5b6000611ea5611e3a565b90506000815111611ec55760405180602001604052806000815250611ef0565b80611ecf84612134565b604051602001611ee0929190612cfb565b6040516020818303038152906040525b915050919050565b505050565b505050565b60008082905060005b8451811015611f92576000858281518110611f4f577f4e487b7100000000000000000000000000000000000000000000000000000000600052603260045260246000fd5b60200260200101519050808311611f7157611f6a83826122e1565b9250611f7e565b611f7b81846122e1565b92505b508080611f8a90613400565b915050611f0b565b508091505092915050565b6000611fbe8473ffffffffffffffffffffffffffffffffffffffff166122f8565b15612127578373ffffffffffffffffffffffffffffffffffffffff1663150b7a02611fe7611509565b8786866040518563ffffffff1660e01b81526004016120099493929190612d3a565b602060405180830381600087803b15801561202357600080fd5b505af192505050801561205457506040513d601f19601f820116820180604052508101906120519190612731565b60015b6120d7573d8060008114612084576040519150601f19603f3d011682016040523d82523d6000602084013e612089565b606091505b506000815114156120cf576040517f08c379a00000000000000000000000000000000000000000000000000000000081526004016120c690612dfe565b60405180910390fd5b805181602001fd5b63150b7a0260e01b7bffffffffffffffffffffffffffffffffffffffffffffffffffffffff1916817bffffffffffffffffffffffffffffffffffffffffffffffffffffffff19161491505061212c565b600190505b949350505050565b6060600082141561217c576040518060400160405280600181526020017f300000000000000000000000000000000000000000000000000000000000000081525090506122dc565b600082905060005b600082146121ae57808061219790613400565b915050600a826121a7919061323a565b9150612184565b60008167ffffffffffffffff8111156121f0577f4e487b7100000000000000000000000000000000000000000000000000000000600052604160045260246000fd5b6040519080825280601f01601f1916602001820160405280156122225781602001600182028036833780820191505090505b5090505b600085146122d55760018261223b919061326b565b9150600a8561224a9190613477565b603061225691906131e4565b60f81b818381518110612292577f4e487b7100000000000000000000000000000000000000000000000000000000600052603260045260246000fd5b60200101907effffffffffffffffffffffffffffffffffffffffffffffffffffffffffffff1916908160001a905350600a856122ce919061323a565b9450612226565b8093505050505b919050565b600082600052816020526040600020905092915050565b6000808273ffffffffffffffffffffffffffffffffffffffff163b119050919050565b8280546123279061339d565b90600052602060002090601f0160209004810192826123495760008555612390565b82601f1061236257805160ff1916838001178555612390565b82800160010185558215612390579182015b8281111561238f578251825591602001919060010190612374565b5b50905061239d91906123a1565b5090565b5b808211156123ba5760008160009055506001016123a2565b5090565b60006123d16123cc84613170565b61314b565b9050828152602081018484840111156123e957600080fd5b6123f4848285613331565b509392505050565b60008135905061240b81613b97565b92915050565b60008083601f84011261242357600080fd5b8235905067ffffffffffffffff81111561243c57600080fd5b60208301915083602082028301111561245457600080fd5b9250929050565b60008135905061246a81613bae565b92915050565b60008135905061247f81613bc5565b92915050565b60008135905061249481613bdc565b92915050565b6000815190506124a981613bdc565b92915050565b600082601f8301126124c057600080fd5b81356124d08482602086016123be565b91505092915050565b60008083601f8401126124eb57600080fd5b8235905067ffffffffffffffff81111561250457600080fd5b60208301915083600182028301111561251c57600080fd5b9250929050565b60008135905061253281613bf3565b92915050565b60006020828403121561254a57600080fd5b6000612558848285016123fc565b91505092915050565b6000806040838503121561257457600080fd5b6000612582858286016123fc565b9250506020612593858286016123fc565b9150509250929050565b6000806000606084860312156125b257600080fd5b60006125c0868287016123fc565b93505060206125d1868287016123fc565b92505060406125e286828701612523565b9150509250925092565b6000806000806080858703121561260257600080fd5b6000612610878288016123fc565b9450506020612621878288016123fc565b935050604061263287828801612523565b925050606085013567ffffffffffffffff81111561264f57600080fd5b61265b878288016124af565b91505092959194509250565b6000806040838503121561267a57600080fd5b6000612688858286016123fc565b92505060206126998582860161245b565b9150509250929050565b600080604083850312156126b657600080fd5b60006126c4858286016123fc565b92505060206126d585828601612523565b9150509250929050565b6000602082840312156126f157600080fd5b60006126ff84828501612470565b91505092915050565b60006020828403121561271a57600080fd5b600061272884828501612485565b91505092915050565b60006020828403121561274357600080fd5b60006127518482850161249a565b91505092915050565b60006020828403121561276c57600080fd5b600061277a84828501612523565b91505092915050565b60008060008060006060868803121561279b57600080fd5b60006127a988828901612523565b955050602086013567ffffffffffffffff8111156127c657600080fd5b6127d2888289016124d9565b9450945050604086013567ffffffffffffffff8111156127f157600080fd5b6127fd88828901612411565b92509250509295509295909350565b6128158161329f565b82525050565b61282c6128278261329f565b613449565b82525050565b61283b816132b1565b82525050565b61284a816132bd565b82525050565b600061285b826131a1565b61286581856131b7565b9350612875818560208601613340565b61287e81613564565b840191505092915050565b600061289583856131c8565b93506128a2838584613331565b6128ab83613564565b840190509392505050565b60006128c1826131ac565b6128cb81856131c8565b93506128db818560208601613340565b6128e481613564565b840191505092915050565b60006128fa826131ac565b61290481856131d9565b9350612914818560208601613340565b80840191505092915050565b600061292d6012836131c8565b915061293882613582565b602082019050919050565b60006129506032836131c8565b915061295b826135ab565b604082019050919050565b60006129736026836131c8565b915061297e826135fa565b604082019050919050565b60006129966025836131c8565b91506129a182613649565b604082019050919050565b60006129b9601c836131c8565b91506129c482613698565b602082019050919050565b60006129dc6024836131c8565b91506129e7826136c1565b604082019050919050565b60006129ff6019836131c8565b9150612a0a82613710565b602082019050919050565b6000612a22602c836131c8565b9150612a2d82613739565b604082019050919050565b6000612a456038836131c8565b9150612a5082613788565b604082019050919050565b6000612a68602a836131c8565b9150612a73826137d7565b604082019050919050565b6000612a8b6029836131c8565b9150612a9682613826565b604082019050919050565b6000612aae602e836131c8565b9150612ab982613875565b604082019050919050565b6000612ad1601c836131c8565b9150612adc826138c4565b602082019050919050565b6000612af46020836131c8565b9150612aff826138ed565b602082019050919050565b6000612b176031836131c8565b9150612b2282613916565b604082019050919050565b6000612b3a602c836131c8565b9150612b4582613965565b604082019050919050565b6000612b5d6020836131c8565b9150612b68826139b4565b602082019050919050565b6000612b80602f836131c8565b9150612b8b826139dd565b604082019050919050565b6000612ba36018836131c8565b9150612bae82613a2c565b602082019050919050565b6000612bc66021836131c8565b9150612bd182613a55565b604082019050919050565b6000612be96031836131c8565b9150612bf482613aa4565b604082019050919050565b6000612c0c6012836131c8565b9150612c1782613af3565b602082019050919050565b6000612c2f6019836131c8565b9150612c3a82613b1c565b602082019050919050565b6000612c526014836131c8565b9150612c5d82613b45565b602082019050919050565b6000612c756013836131c8565b9150612c8082613b6e565b602082019050919050565b612c9481613313565b82525050565b612cab612ca682613313565b61346d565b82525050565b6000612cbd828761281b565b601482019150612ccd8286612c9a565b602082019150612cdd8285612c9a565b602082019150612ced82846128ef565b915081905095945050505050565b6000612d0782856128ef565b9150612d1382846128ef565b91508190509392505050565b6000602082019050612d34600083018461280c565b92915050565b6000608082019050612d4f600083018761280c565b612d5c602083018661280c565b612d696040830185612c8b565b8181036060830152612d7b8184612850565b905095945050505050565b6000602082019050612d9b6000830184612832565b92915050565b6000602082019050612db66000830184612841565b92915050565b60006020820190508181036000830152612dd681846128b6565b905092915050565b60006020820190508181036000830152612df781612920565b9050919050565b60006020820190508181036000830152612e1781612943565b9050919050565b60006020820190508181036000830152612e3781612966565b9050919050565b60006020820190508181036000830152612e5781612989565b9050919050565b60006020820190508181036000830152612e77816129ac565b9050919050565b60006020820190508181036000830152612e97816129cf565b9050919050565b60006020820190508181036000830152612eb7816129f2565b9050919050565b60006020820190508181036000830152612ed781612a15565b9050919050565b60006020820190508181036000830152612ef781612a38565b9050919050565b60006020820190508181036000830152612f1781612a5b565b9050919050565b60006020820190508181036000830152612f3781612a7e565b9050919050565b60006020820190508181036000830152612f5781612aa1565b9050919050565b60006020820190508181036000830152612f7781612ac4565b9050919050565b60006020820190508181036000830152612f9781612ae7565b9050919050565b60006020820190508181036000830152612fb781612b0a565b9050919050565b60006020820190508181036000830152612fd781612b2d565b9050919050565b60006020820190508181036000830152612ff781612b50565b9050919050565b6000602082019050818103600083015261301781612b73565b9050919050565b6000602082019050818103600083015261303781612b96565b9050919050565b6000602082019050818103600083015261305781612bb9565b9050919050565b6000602082019050818103600083015261307781612bdc565b9050919050565b6000602082019050818103600083015261309781612bff565b9050919050565b600060208201905081810360008301526130b781612c22565b9050919050565b600060208201905081810360008301526130d781612c45565b9050919050565b600060208201905081810360008301526130f781612c68565b9050919050565b60006020820190506131136000830184612c8b565b92915050565b600060408201905061312e6000830186612c8b565b8181036020830152613141818486612889565b9050949350505050565b6000613155613166565b905061316182826133cf565b919050565b6000604051905090565b600067ffffffffffffffff82111561318b5761318a613535565b5b61319482613564565b9050602081019050919050565b600081519050919050565b600081519050919050565b600082825260208201905092915050565b600082825260208201905092915050565b600081905092915050565b60006131ef82613313565b91506131fa83613313565b9250827fffffffffffffffffffffffffffffffffffffffffffffffffffffffffffffffff0382111561322f5761322e6134a8565b5b828201905092915050565b600061324582613313565b915061325083613313565b9250826132605761325f6134d7565b5b828204905092915050565b600061327682613313565b915061328183613313565b925082821015613294576132936134a8565b5b828203905092915050565b60006132aa826132f3565b9050919050565b60008115159050919050565b6000819050919050565b60007fffffffff0000000000000000000000000000000000000000000000000000000082169050919050565b600073ffffffffffffffffffffffffffffffffffffffff82169050919050565b6000819050919050565b600067ffffffffffffffff82169050919050565b82818337600083830152505050565b60005b8381101561335e578082015181840152602081019050613343565b8381111561336d576000848401525b50505050565b600061337e8261331d565b91506000821415613392576133916134a8565b5b600182039050919050565b600060028204905060018216806133b557607f821691505b602082108114156133c9576133c8613506565b5b50919050565b6133d882613564565b810181811067ffffffffffffffff821117156133f7576133f6613535565b5b80604052505050565b600061340b82613313565b91507fffffffffffffffffffffffffffffffffffffffffffffffffffffffffffffffff82141561343e5761343d6134a8565b5b600182019050919050565b60006134548261345b565b9050919050565b600061346682613575565b9050919050565b6000819050919050565b600061348282613313565b915061348d83613313565b92508261349d5761349c6134d7565b5b828206905092915050565b7f4e487b7100000000000000000000000000000000000000000000000000000000600052601160045260246000fd5b7f4e487b7100000000000000000000000000000000000000000000000000000000600052601260045260246000fd5b7f4e487b7100000000000000000000000000000000000000000000000000000000600052602260045260246000fd5b7f4e487b7100000000000000000000000000000000000000000000000000000000600052604160045260246000fd5b6000601f19601f8301169050919050565b60008160601b9050919050565b7f52657665616c20697320656e61626c6564210000000000000000000000000000600082015250565b7f4552433732313a207472616e7366657220746f206e6f6e20455243373231526560008201527f63656976657220696d706c656d656e7465720000000000000000000000000000602082015250565b7f4f776e61626c653a206e6577206f776e657220697320746865207a65726f206160008201527f6464726573730000000000000000000000000000000000000000000000000000602082015250565b7f4552433732313a207472616e736665722066726f6d20696e636f72726563742060008201527f6f776e6572000000000000000000000000000000000000000000000000000000602082015250565b7f4552433732313a20746f6b656e20616c7265616479206d696e74656400000000600082015250565b7f4552433732313a207472616e7366657220746f20746865207a65726f2061646460008201527f7265737300000000000000000000000000000000000000000000000000000000602082015250565b7f4552433732313a20617070726f766520746f2063616c6c657200000000000000600082015250565b7f4552433732313a206f70657261746f7220717565727920666f72206e6f6e657860008201527f697374656e7420746f6b656e0000000000000000000000000000000000000000602082015250565b7f4552433732313a20617070726f76652063616c6c6572206973206e6f74206f7760008201527f6e6572206e6f7220617070726f76656420666f7220616c6c0000000000000000602082015250565b7f4552433732313a2062616c616e636520717565727920666f7220746865207a6560008201527f726f206164647265737300000000000000000000000000000000000000000000602082015250565b7f4552433732313a206f776e657220717565727920666f72206e6f6e657869737460008201527f656e7420746f6b656e0000000000000000000000000000000000000000000000602082015250565b7f45524337323155524953746f726167653a2055524920736574206f66206e6f6e60008201527f6578697374656e7420746f6b656e000000000000000000000000000000000000602082015250565b7f596f7520617265206e6f742074686520746f6b656e206f776e65722100000000600082015250565b7f4552433732313a206d696e7420746f20746865207a65726f2061646472657373600082015250565b7f45524337323155524953746f726167653a2055524920717565727920666f722060008201527f6e6f6e6578697374656e7420746f6b656e000000000000000000000000000000602082015250565b7f4552433732313a20617070726f76656420717565727920666f72206e6f6e657860008201527f697374656e7420746f6b656e0000000000000000000000000000000000000000602082015250565b7f4f776e61626c653a2063616c6c6572206973206e6f7420746865206f776e6572600082015250565b7f4552433732314d657461646174613a2055524920717565727920666f72206e6f60008201527f6e6578697374656e7420746f6b656e0000000000000000000000000000000000602082015250565b7f4d65726b6c6520726f6f7420616c726561647920736574210000000000000000600082015250565b7f4552433732313a20617070726f76616c20746f2063757272656e74206f776e6560008201527f7200000000000000000000000000000000000000000000000000000000000000602082015250565b7f4552433732313a207472616e736665722063616c6c6572206973206e6f74206f60008201527f776e6572206e6f7220617070726f766564000000000000000000000000000000602082015250565b7f4d617820737570706c7920726561636865640000000000000000000000000000600082015250565b7f4d65726b6c652070726f6f66206973206e6f742076616c696400000000000000600082015250565b7f4d65726b6c6520726f6f74206e6f742073657421000000000000000000000000600082015250565b7f52657665616c2069732064697361626c65642100000000000000000000000000600082015250565b613ba08161329f565b8114613bab57600080fd5b50565b613bb7816132b1565b8114613bc257600080fd5b50565b613bce816132bd565b8114613bd957600080fd5b50565b613be5816132c7565b8114613bf057600080fd5b50565b613bfc81613313565b8114613c0757600080fd5b5056fea264697066735822122094c429cd42f41335e5646f8d9e9d1870ef511fc0b056202a8ac170dd2bec9a9764736f6c63430008040033",
  "devdoc": {
    "kind": "dev",
    "methods": {
      "approve(address,uint256)": {
        "details": "See {IERC721-approve}."
      },
      "balanceOf(address)": {
        "details": "See {IERC721-balanceOf}."
      },
      "getApproved(uint256)": {
        "details": "See {IERC721-getApproved}."
      },
      "isApprovedForAll(address,address)": {
        "details": "See {IERC721-isApprovedForAll}."
      },
      "name()": {
        "details": "See {IERC721Metadata-name}."
      },
      "owner()": {
        "details": "Returns the address of the current owner."
      },
      "ownerOf(uint256)": {
        "details": "See {IERC721-ownerOf}."
      },
      "renounceOwnership()": {
        "details": "Leaves the contract without owner. It will not be possible to call `onlyOwner` functions anymore. Can only be called by the current owner. NOTE: Renouncing ownership will leave the contract without an owner, thereby removing any functionality that is only available to the owner."
      },
      "safeTransferFrom(address,address,uint256)": {
        "details": "See {IERC721-safeTransferFrom}."
      },
      "safeTransferFrom(address,address,uint256,bytes)": {
        "details": "See {IERC721-safeTransferFrom}."
      },
      "setApprovalForAll(address,bool)": {
        "details": "See {IERC721-setApprovalForAll}."
      },
      "supportsInterface(bytes4)": {
        "details": "See {IERC165-supportsInterface}."
      },
      "symbol()": {
        "details": "See {IERC721Metadata-symbol}."
      },
      "tokenURI(uint256)": {
        "details": "See {IERC721Metadata-tokenURI}."
      },
      "transferFrom(address,address,uint256)": {
        "details": "See {IERC721-transferFrom}."
      },
      "transferOwnership(address)": {
        "details": "Transfers ownership of the contract to a new account (`newOwner`). Can only be called by the current owner."
      }
    },
    "version": 1
  },
  "userdoc": {
    "kind": "user",
    "methods": {},
    "version": 1
  },
  "storageLayout": {
    "storage": [
      {
        "astId": 130,
        "contract": "contracts/MerkleERC721.sol:MerkleERC721",
        "label": "_name",
        "offset": 0,
        "slot": "0",
        "type": "t_string_storage"
      },
      {
        "astId": 132,
        "contract": "contracts/MerkleERC721.sol:MerkleERC721",
        "label": "_symbol",
        "offset": 0,
        "slot": "1",
        "type": "t_string_storage"
      },
      {
        "astId": 136,
        "contract": "contracts/MerkleERC721.sol:MerkleERC721",
        "label": "_owners",
        "offset": 0,
        "slot": "2",
        "type": "t_mapping(t_uint256,t_address)"
      },
      {
        "astId": 140,
        "contract": "contracts/MerkleERC721.sol:MerkleERC721",
        "label": "_balances",
        "offset": 0,
        "slot": "3",
        "type": "t_mapping(t_address,t_uint256)"
      },
      {
        "astId": 144,
        "contract": "contracts/MerkleERC721.sol:MerkleERC721",
        "label": "_tokenApprovals",
        "offset": 0,
        "slot": "4",
        "type": "t_mapping(t_uint256,t_address)"
      },
      {
        "astId": 150,
        "contract": "contracts/MerkleERC721.sol:MerkleERC721",
        "label": "_operatorApprovals",
        "offset": 0,
        "slot": "5",
        "type": "t_mapping(t_address,t_mapping(t_address,t_bool))"
      },
      {
        "astId": 1117,
        "contract": "contracts/MerkleERC721.sol:MerkleERC721",
        "label": "_tokenURIs",
        "offset": 0,
        "slot": "6",
        "type": "t_mapping(t_uint256,t_string_storage)"
      },
      {
        "astId": 7,
        "contract": "contracts/MerkleERC721.sol:MerkleERC721",
        "label": "_owner",
        "offset": 0,
        "slot": "7",
        "type": "t_address"
      },
      {
        "astId": 1922,
        "contract": "contracts/MerkleERC721.sol:MerkleERC721",
        "label": "_merkleRoot",
        "offset": 0,
        "slot": "8",
        "type": "t_bytes32"
      },
      {
        "astId": 1924,
        "contract": "contracts/MerkleERC721.sol:MerkleERC721",
        "label": "_revealEnabled",
        "offset": 0,
        "slot": "9",
        "type": "t_bool"
      },
      {
        "astId": 1926,
        "contract": "contracts/MerkleERC721.sol:MerkleERC721",
        "label": "_maxSupply",
        "offset": 1,
        "slot": "9",
        "type": "t_uint64"
      },
      {
        "astId": 1930,
        "contract": "contracts/MerkleERC721.sol:MerkleERC721",
        "label": "_tokenRevealed",
        "offset": 0,
        "slot": "10",
        "type": "t_mapping(t_uint256,t_bool)"
      }
    ],
    "types": {
      "t_address": {
        "encoding": "inplace",
        "label": "address",
        "numberOfBytes": "20"
      },
      "t_bool": {
        "encoding": "inplace",
        "label": "bool",
        "numberOfBytes": "1"
      },
      "t_bytes32": {
        "encoding": "inplace",
        "label": "bytes32",
        "numberOfBytes": "32"
      },
      "t_mapping(t_address,t_bool)": {
        "encoding": "mapping",
        "key": "t_address",
        "label": "mapping(address => bool)",
        "numberOfBytes": "32",
        "value": "t_bool"
      },
      "t_mapping(t_address,t_mapping(t_address,t_bool))": {
        "encoding": "mapping",
        "key": "t_address",
        "label": "mapping(address => mapping(address => bool))",
        "numberOfBytes": "32",
        "value": "t_mapping(t_address,t_bool)"
      },
      "t_mapping(t_address,t_uint256)": {
        "encoding": "mapping",
        "key": "t_address",
        "label": "mapping(address => uint256)",
        "numberOfBytes": "32",
        "value": "t_uint256"
      },
      "t_mapping(t_uint256,t_address)": {
        "encoding": "mapping",
        "key": "t_uint256",
        "label": "mapping(uint256 => address)",
        "numberOfBytes": "32",
        "value": "t_address"
      },
      "t_mapping(t_uint256,t_bool)": {
        "encoding": "mapping",
        "key": "t_uint256",
        "label": "mapping(uint256 => bool)",
        "numberOfBytes": "32",
        "value": "t_bool"
      },
      "t_mapping(t_uint256,t_string_storage)": {
        "encoding": "mapping",
        "key": "t_uint256",
        "label": "mapping(uint256 => string)",
        "numberOfBytes": "32",
        "value": "t_string_storage"
      },
      "t_string_storage": {
        "encoding": "bytes",
        "label": "string",
        "numberOfBytes": "32"
      },
      "t_uint256": {
        "encoding": "inplace",
        "label": "uint256",
        "numberOfBytes": "32"
      },
      "t_uint64": {
        "encoding": "inplace",
        "label": "uint64",
        "numberOfBytes": "8"
      }
    }
  }
}